{
  "contractName": "Crops",
  "abi": [
    {
      "inputs": [],
      "stateMutability": "nonpayable",
      "type": "constructor"
    },
    {
      "anonymous": false,
      "inputs": [
        {
          "indexed": true,
          "internalType": "address",
          "name": "account",
          "type": "address"
        },
        {
          "indexed": true,
          "internalType": "address",
          "name": "operator",
          "type": "address"
        },
        {
          "indexed": false,
          "internalType": "bool",
          "name": "approved",
          "type": "bool"
        }
      ],
      "name": "ApprovalForAll",
      "type": "event"
    },
    {
      "anonymous": false,
      "inputs": [
        {
          "indexed": true,
          "internalType": "address",
          "name": "operator",
          "type": "address"
        },
        {
          "indexed": true,
          "internalType": "address",
          "name": "from",
          "type": "address"
        },
        {
          "indexed": true,
          "internalType": "address",
          "name": "to",
          "type": "address"
        },
        {
          "indexed": false,
          "internalType": "uint256[]",
          "name": "ids",
          "type": "uint256[]"
        },
        {
          "indexed": false,
          "internalType": "uint256[]",
          "name": "values",
          "type": "uint256[]"
        }
      ],
      "name": "TransferBatch",
      "type": "event"
    },
    {
      "anonymous": false,
      "inputs": [
        {
          "indexed": true,
          "internalType": "address",
          "name": "operator",
          "type": "address"
        },
        {
          "indexed": true,
          "internalType": "address",
          "name": "from",
          "type": "address"
        },
        {
          "indexed": true,
          "internalType": "address",
          "name": "to",
          "type": "address"
        },
        {
          "indexed": false,
          "internalType": "uint256",
          "name": "id",
          "type": "uint256"
        },
        {
          "indexed": false,
          "internalType": "uint256",
          "name": "value",
          "type": "uint256"
        }
      ],
      "name": "TransferSingle",
      "type": "event"
    },
    {
      "anonymous": false,
      "inputs": [
        {
          "indexed": false,
          "internalType": "string",
          "name": "value",
          "type": "string"
        },
        {
          "indexed": true,
          "internalType": "uint256",
          "name": "id",
          "type": "uint256"
        }
      ],
      "name": "URI",
      "type": "event"
    },
    {
      "inputs": [],
      "name": "CARROT",
      "outputs": [
        {
          "internalType": "uint256",
          "name": "",
          "type": "uint256"
        }
      ],
      "stateMutability": "view",
      "type": "function",
      "constant": true
    },
    {
      "inputs": [],
      "name": "CORN",
      "outputs": [
        {
          "internalType": "uint256",
          "name": "",
          "type": "uint256"
        }
      ],
      "stateMutability": "view",
      "type": "function",
      "constant": true
    },
    {
      "inputs": [],
      "name": "GOLDEN_CARROT",
      "outputs": [
        {
          "internalType": "uint256",
          "name": "",
          "type": "uint256"
        }
      ],
      "stateMutability": "view",
      "type": "function",
      "constant": true
    },
    {
      "inputs": [],
      "name": "POTATO",
      "outputs": [
        {
          "internalType": "uint256",
          "name": "",
          "type": "uint256"
        }
      ],
      "stateMutability": "view",
      "type": "function",
      "constant": true
    },
    {
      "inputs": [],
      "name": "RAINBOW_CORN",
      "outputs": [
        {
          "internalType": "uint256",
          "name": "",
          "type": "uint256"
        }
      ],
      "stateMutability": "view",
      "type": "function",
      "constant": true
    },
    {
      "inputs": [],
      "name": "SPROUTING_POTATO",
      "outputs": [
        {
          "internalType": "uint256",
          "name": "",
          "type": "uint256"
        }
      ],
      "stateMutability": "view",
      "type": "function",
      "constant": true
    },
    {
      "inputs": [
        {
          "internalType": "address",
          "name": "account",
          "type": "address"
        },
        {
          "internalType": "uint256",
          "name": "id",
          "type": "uint256"
        }
      ],
      "name": "balanceOf",
      "outputs": [
        {
          "internalType": "uint256",
          "name": "",
          "type": "uint256"
        }
      ],
      "stateMutability": "view",
      "type": "function",
      "constant": true
    },
    {
      "inputs": [
        {
          "internalType": "address[]",
          "name": "accounts",
          "type": "address[]"
        },
        {
          "internalType": "uint256[]",
          "name": "ids",
          "type": "uint256[]"
        }
      ],
      "name": "balanceOfBatch",
      "outputs": [
        {
          "internalType": "uint256[]",
          "name": "",
          "type": "uint256[]"
        }
      ],
      "stateMutability": "view",
      "type": "function",
      "constant": true
    },
    {
      "inputs": [
        {
          "internalType": "address",
          "name": "account",
          "type": "address"
        },
        {
          "internalType": "address",
          "name": "operator",
          "type": "address"
        }
      ],
      "name": "isApprovedForAll",
      "outputs": [
        {
          "internalType": "bool",
          "name": "",
          "type": "bool"
        }
      ],
      "stateMutability": "view",
      "type": "function",
      "constant": true
    },
    {
      "inputs": [
        {
          "internalType": "address",
          "name": "from",
          "type": "address"
        },
        {
          "internalType": "address",
          "name": "to",
          "type": "address"
        },
        {
          "internalType": "uint256[]",
          "name": "ids",
          "type": "uint256[]"
        },
        {
          "internalType": "uint256[]",
          "name": "amounts",
          "type": "uint256[]"
        },
        {
          "internalType": "bytes",
          "name": "data",
          "type": "bytes"
        }
      ],
      "name": "safeBatchTransferFrom",
      "outputs": [],
      "stateMutability": "nonpayable",
      "type": "function"
    },
    {
      "inputs": [
        {
          "internalType": "address",
          "name": "from",
          "type": "address"
        },
        {
          "internalType": "address",
          "name": "to",
          "type": "address"
        },
        {
          "internalType": "uint256",
          "name": "id",
          "type": "uint256"
        },
        {
          "internalType": "uint256",
          "name": "amount",
          "type": "uint256"
        },
        {
          "internalType": "bytes",
          "name": "data",
          "type": "bytes"
        }
      ],
      "name": "safeTransferFrom",
      "outputs": [],
      "stateMutability": "nonpayable",
      "type": "function"
    },
    {
      "inputs": [
        {
          "internalType": "address",
          "name": "operator",
          "type": "address"
        },
        {
          "internalType": "bool",
          "name": "approved",
          "type": "bool"
        }
      ],
      "name": "setApprovalForAll",
      "outputs": [],
      "stateMutability": "nonpayable",
      "type": "function"
    },
    {
      "inputs": [
        {
          "internalType": "bytes4",
          "name": "interfaceId",
          "type": "bytes4"
        }
      ],
      "name": "supportsInterface",
      "outputs": [
        {
          "internalType": "bool",
          "name": "",
          "type": "bool"
        }
      ],
      "stateMutability": "view",
      "type": "function",
      "constant": true
    },
    {
      "inputs": [
        {
          "internalType": "uint256",
          "name": "",
          "type": "uint256"
        }
      ],
      "name": "uri",
      "outputs": [
        {
          "internalType": "string",
          "name": "",
          "type": "string"
        }
      ],
      "stateMutability": "view",
      "type": "function",
      "constant": true
    }
  ],
  "bytecode": "0x60806040523480156200001157600080fd5b50604051806080016040528060508152602001620033f7605091396200003d816200012560201b60201c565b50620000643360006103e8604051806020016040528060008152506200014160201b60201c565b6200008a3360016107d0604051806020016040528060008152506200014160201b60201c565b620000b0336002610bb8604051806020016040528060008152506200014160201b60201c565b620000d53360036001604051806020016040528060008152506200014160201b60201c565b620000fa3360046002604051806020016040528060008152506200014160201b60201c565b6200011f3360056003604051806020016040528060008152506200014160201b60201c565b62000d2f565b80600290805190602001906200013d929190620005b2565b5050565b600073ffffffffffffffffffffffffffffffffffffffff168473ffffffffffffffffffffffffffffffffffffffff1603620001b3576040517f08c379a0000000000000000000000000000000000000000000000000000000008152600401620001aa90620006e9565b60405180910390fd5b6000620001c56200030560201b60201c565b9050620001fe81600087620001e0886200030d60201b60201c565b620001f1886200030d60201b60201c565b876200038e60201b60201c565b8260008086815260200190815260200160002060008773ffffffffffffffffffffffffffffffffffffffff1673ffffffffffffffffffffffffffffffffffffffff16815260200190815260200160002060008282546200025f919062000744565b925050819055508473ffffffffffffffffffffffffffffffffffffffff16600073ffffffffffffffffffffffffffffffffffffffff168273ffffffffffffffffffffffffffffffffffffffff167fc3d58168c5ae7397731d063d5bbf3d657854427343f4c083240f7aacaa2d0f628787604051620002df929190620007b2565b60405180910390a4620002fe816000878787876200039660201b60201c565b5050505050565b600033905090565b60606000600167ffffffffffffffff8111156200032f576200032e620007df565b5b6040519080825280602002602001820160405280156200035e5781602001602082028036833780820191505090505b50905082816000815181106200037957620003786200080e565b5b60200260200101818152505080915050919050565b505050505050565b620003c28473ffffffffffffffffffffffffffffffffffffffff166200058f60201b620008471760201c565b1562000587578373ffffffffffffffffffffffffffffffffffffffff1663f23a6e6187878686866040518663ffffffff1660e01b81526004016200040b95949392919062000926565b6020604051808303816000875af19250505080156200044a57506040513d601f19601f82011682018060405250810190620004479190620009f6565b60015b620004fb576200045962000a35565b806308c379a003620004bc57506200047062000a90565b806200047d5750620004be565b806040517f08c379a0000000000000000000000000000000000000000000000000000000008152600401620004b3919062000b77565b60405180910390fd5b505b6040517f08c379a0000000000000000000000000000000000000000000000000000000008152600401620004f29062000c11565b60405180910390fd5b63f23a6e6160e01b7bffffffffffffffffffffffffffffffffffffffffffffffffffffffff1916817bffffffffffffffffffffffffffffffffffffffffffffffffffffffff19161462000585576040517f08c379a00000000000000000000000000000000000000000000000000000000081526004016200057c9062000ca9565b60405180910390fd5b505b505050505050565b6000808273ffffffffffffffffffffffffffffffffffffffff163b119050919050565b828054620005c09062000cfa565b90600052602060002090601f016020900481019282620005e4576000855562000630565b82601f10620005ff57805160ff191683800117855562000630565b8280016001018555821562000630579182015b828111156200062f57825182559160200191906001019062000612565b5b5090506200063f919062000643565b5090565b5b808211156200065e57600081600090555060010162000644565b5090565b600082825260208201905092915050565b7f455243313135353a206d696e7420746f20746865207a65726f2061646472657360008201527f7300000000000000000000000000000000000000000000000000000000000000602082015250565b6000620006d160218362000662565b9150620006de8262000673565b604082019050919050565b600060208201905081810360008301526200070481620006c2565b9050919050565b6000819050919050565b7f4e487b7100000000000000000000000000000000000000000000000000000000600052601160045260246000fd5b600062000751826200070b565b91506200075e836200070b565b9250827fffffffffffffffffffffffffffffffffffffffffffffffffffffffffffffffff0382111562000796576200079562000715565b5b828201905092915050565b620007ac816200070b565b82525050565b6000604082019050620007c96000830185620007a1565b620007d86020830184620007a1565b9392505050565b7f4e487b7100000000000000000000000000000000000000000000000000000000600052604160045260246000fd5b7f4e487b7100000000000000000000000000000000000000000000000000000000600052603260045260246000fd5b600073ffffffffffffffffffffffffffffffffffffffff82169050919050565b60006200086a826200083d565b9050919050565b6200087c816200085d565b82525050565b600081519050919050565b600082825260208201905092915050565b60005b83811015620008be578082015181840152602081019050620008a1565b83811115620008ce576000848401525b50505050565b6000601f19601f8301169050919050565b6000620008f28262000882565b620008fe81856200088d565b9350620009108185602086016200089e565b6200091b81620008d4565b840191505092915050565b600060a0820190506200093d600083018862000871565b6200094c602083018762000871565b6200095b6040830186620007a1565b6200096a6060830185620007a1565b81810360808301526200097e8184620008e5565b90509695505050505050565b6000604051905090565b600080fd5b60007fffffffff0000000000000000000000000000000000000000000000000000000082169050919050565b620009d08162000999565b8114620009dc57600080fd5b50565b600081519050620009f081620009c5565b92915050565b60006020828403121562000a0f5762000a0e62000994565b5b600062000a1f84828501620009df565b91505092915050565b60008160e01c9050919050565b600060033d111562000a575760046000803e62000a5460005162000a28565b90505b90565b62000a6582620008d4565b810181811067ffffffffffffffff8211171562000a875762000a86620007df565b5b80604052505050565b600060443d1062000b285762000aa56200098a565b60043d036004823e80513d602482011167ffffffffffffffff8211171562000acf57505062000b28565b808201805167ffffffffffffffff81111562000aef575050505062000b28565b80602083010160043d03850181111562000b0e57505050505062000b28565b62000b1f8260200185018662000a5a565b82955050505050505b90565b600081519050919050565b600062000b438262000b2b565b62000b4f818562000662565b935062000b618185602086016200089e565b62000b6c81620008d4565b840191505092915050565b6000602082019050818103600083015262000b93818462000b36565b905092915050565b7f455243313135353a207472616e7366657220746f206e6f6e204552433131353560008201527f526563656976657220696d706c656d656e746572000000000000000000000000602082015250565b600062000bf960348362000662565b915062000c068262000b9b565b604082019050919050565b6000602082019050818103600083015262000c2c8162000bea565b9050919050565b7f455243313135353a204552433131353552656365697665722072656a6563746560008201527f6420746f6b656e73000000000000000000000000000000000000000000000000602082015250565b600062000c9160288362000662565b915062000c9e8262000c33565b604082019050919050565b6000602082019050818103600083015262000cc48162000c82565b9050919050565b7f4e487b7100000000000000000000000000000000000000000000000000000000600052602260045260246000fd5b6000600282049050600182168062000d1357607f821691505b60208210810362000d295762000d2862000ccb565b5b50919050565b6126b88062000d3f6000396000f3fe608060405234801561001057600080fd5b50600436106100e95760003560e01c8063a22cb4651161008c578063e3f8f55511610066578063e3f8f5551461025e578063e985e9c51461027c578063ebc4527d146102ac578063f242432a146102ca576100e9565b8063a22cb46514610206578063a5d3670a14610222578063ccc3aeec14610240576100e9565b80632eb2c2d6116100c85780632eb2c2d61461017e5780634e1273f41461019a57806380d25352146101ca5780639f2685f7146101e8576100e9565b8062fdd58e146100ee57806301ffc9a71461011e5780630e89341c1461014e575b600080fd5b610108600480360381019061010391906114b4565b6102e6565b6040516101159190611503565b60405180910390f35b61013860048036038101906101339190611576565b6103ae565b60405161014591906115be565b60405180910390f35b610168600480360381019061016391906115d9565b610490565b604051610175919061169f565b60405180910390f35b610198600480360381019061019391906118be565b610524565b005b6101b460048036038101906101af9190611a50565b6105c5565b6040516101c19190611b86565b60405180910390f35b6101d26106de565b6040516101df9190611503565b60405180910390f35b6101f06106e3565b6040516101fd9190611503565b60405180910390f35b610220600480360381019061021b9190611bd4565b6106e8565b005b61022a6106fe565b6040516102379190611503565b60405180910390f35b610248610703565b6040516102559190611503565b60405180910390f35b610266610708565b6040516102739190611503565b60405180910390f35b61029660048036038101906102919190611c14565b61070d565b6040516102a391906115be565b60405180910390f35b6102b46107a1565b6040516102c19190611503565b60405180910390f35b6102e460048036038101906102df9190611c54565b6107a6565b005b60008073ffffffffffffffffffffffffffffffffffffffff168373ffffffffffffffffffffffffffffffffffffffff1603610356576040517f08c379a000000000000000000000000000000000000000000000000000000000815260040161034d90611d5d565b60405180910390fd5b60008083815260200190815260200160002060008473ffffffffffffffffffffffffffffffffffffffff1673ffffffffffffffffffffffffffffffffffffffff16815260200190815260200160002054905092915050565b60007fd9b67a26000000000000000000000000000000000000000000000000000000007bffffffffffffffffffffffffffffffffffffffffffffffffffffffff1916827bffffffffffffffffffffffffffffffffffffffffffffffffffffffff1916148061047957507f0e89341c000000000000000000000000000000000000000000000000000000007bffffffffffffffffffffffffffffffffffffffffffffffffffffffff1916827bffffffffffffffffffffffffffffffffffffffffffffffffffffffff1916145b8061048957506104888261086a565b5b9050919050565b60606002805461049f90611dac565b80601f01602080910402602001604051908101604052809291908181526020018280546104cb90611dac565b80156105185780601f106104ed57610100808354040283529160200191610518565b820191906000526020600020905b8154815290600101906020018083116104fb57829003601f168201915b50505050509050919050565b61052c6108d4565b73ffffffffffffffffffffffffffffffffffffffff168573ffffffffffffffffffffffffffffffffffffffff16148061057257506105718561056c6108d4565b61070d565b5b6105b1576040517f08c379a00000000000000000000000000000000000000000000000000000000081526004016105a890611e4f565b60405180910390fd5b6105be85858585856108dc565b5050505050565b6060815183511461060b576040517f08c379a000000000000000000000000000000000000000000000000000000000815260040161060290611ee1565b60405180910390fd5b6000835167ffffffffffffffff811115610628576106276116c6565b5b6040519080825280602002602001820160405280156106565781602001602082028036833780820191505090505b50905060005b84518110156106d3576106a385828151811061067b5761067a611f01565b5b602002602001015185838151811061069657610695611f01565b5b60200260200101516102e6565b8282815181106106b6576106b5611f01565b5b602002602001018181525050806106cc90611f5f565b905061065c565b508091505092915050565b600581565b600181565b6106fa6106f36108d4565b8383610bef565b5050565b600381565b600081565b600281565b6000600160008473ffffffffffffffffffffffffffffffffffffffff1673ffffffffffffffffffffffffffffffffffffffff16815260200190815260200160002060008373ffffffffffffffffffffffffffffffffffffffff1673ffffffffffffffffffffffffffffffffffffffff16815260200190815260200160002060009054906101000a900460ff16905092915050565b600481565b6107ae6108d4565b73ffffffffffffffffffffffffffffffffffffffff168573ffffffffffffffffffffffffffffffffffffffff1614806107f457506107f3856107ee6108d4565b61070d565b5b610833576040517f08c379a000000000000000000000000000000000000000000000000000000000815260040161082a90612019565b60405180910390fd5b6108408585858585610d5b565b5050505050565b6000808273ffffffffffffffffffffffffffffffffffffffff163b119050919050565b60007f01ffc9a7000000000000000000000000000000000000000000000000000000007bffffffffffffffffffffffffffffffffffffffffffffffffffffffff1916827bffffffffffffffffffffffffffffffffffffffffffffffffffffffff1916149050919050565b600033905090565b8151835114610920576040517f08c379a0000000000000000000000000000000000000000000000000000000008152600401610917906120ab565b60405180910390fd5b600073ffffffffffffffffffffffffffffffffffffffff168473ffffffffffffffffffffffffffffffffffffffff160361098f576040517f08c379a00000000000000000000000000000000000000000000000000000000081526004016109869061213d565b60405180910390fd5b60006109996108d4565b90506109a9818787878787610fdc565b60005b8451811015610b5a5760008582815181106109ca576109c9611f01565b5b6020026020010151905060008583815181106109e9576109e8611f01565b5b60200260200101519050600080600084815260200190815260200160002060008b73ffffffffffffffffffffffffffffffffffffffff1673ffffffffffffffffffffffffffffffffffffffff16815260200190815260200160002054905081811015610a8a576040517f08c379a0000000000000000000000000000000000000000000000000000000008152600401610a81906121cf565b60405180910390fd5b81810360008085815260200190815260200160002060008c73ffffffffffffffffffffffffffffffffffffffff1673ffffffffffffffffffffffffffffffffffffffff168152602001908152602001600020819055508160008085815260200190815260200160002060008b73ffffffffffffffffffffffffffffffffffffffff1673ffffffffffffffffffffffffffffffffffffffff1681526020019081526020016000206000828254610b3f91906121ef565b9250508190555050505080610b5390611f5f565b90506109ac565b508473ffffffffffffffffffffffffffffffffffffffff168673ffffffffffffffffffffffffffffffffffffffff168273ffffffffffffffffffffffffffffffffffffffff167f4a39dc06d4c0dbc64b70af90fd698a233a518aa5d07e595d983b8c0526c8f7fb8787604051610bd1929190612245565b60405180910390a4610be7818787878787610fe4565b505050505050565b8173ffffffffffffffffffffffffffffffffffffffff168373ffffffffffffffffffffffffffffffffffffffff1603610c5d576040517f08c379a0000000000000000000000000000000000000000000000000000000008152600401610c54906122ee565b60405180910390fd5b80600160008573ffffffffffffffffffffffffffffffffffffffff1673ffffffffffffffffffffffffffffffffffffffff16815260200190815260200160002060008473ffffffffffffffffffffffffffffffffffffffff1673ffffffffffffffffffffffffffffffffffffffff16815260200190815260200160002060006101000a81548160ff0219169083151502179055508173ffffffffffffffffffffffffffffffffffffffff168373ffffffffffffffffffffffffffffffffffffffff167f17307eab39ab6107e8899845ad3d59bd9653f200f220920489ca2b5937696c3183604051610d4e91906115be565b60405180910390a3505050565b600073ffffffffffffffffffffffffffffffffffffffff168473ffffffffffffffffffffffffffffffffffffffff1603610dca576040517f08c379a0000000000000000000000000000000000000000000000000000000008152600401610dc19061213d565b60405180910390fd5b6000610dd46108d4565b9050610df4818787610de5886111bb565b610dee886111bb565b87610fdc565b600080600086815260200190815260200160002060008873ffffffffffffffffffffffffffffffffffffffff1673ffffffffffffffffffffffffffffffffffffffff16815260200190815260200160002054905083811015610e8b576040517f08c379a0000000000000000000000000000000000000000000000000000000008152600401610e82906121cf565b60405180910390fd5b83810360008087815260200190815260200160002060008973ffffffffffffffffffffffffffffffffffffffff1673ffffffffffffffffffffffffffffffffffffffff168152602001908152602001600020819055508360008087815260200190815260200160002060008873ffffffffffffffffffffffffffffffffffffffff1673ffffffffffffffffffffffffffffffffffffffff1681526020019081526020016000206000828254610f4091906121ef565b925050819055508573ffffffffffffffffffffffffffffffffffffffff168773ffffffffffffffffffffffffffffffffffffffff168373ffffffffffffffffffffffffffffffffffffffff167fc3d58168c5ae7397731d063d5bbf3d657854427343f4c083240f7aacaa2d0f628888604051610fbd92919061230e565b60405180910390a4610fd3828888888888611235565b50505050505050565b505050505050565b6110038473ffffffffffffffffffffffffffffffffffffffff16610847565b156111b3578373ffffffffffffffffffffffffffffffffffffffff1663bc197c8187878686866040518663ffffffff1660e01b815260040161104995949392919061239b565b6020604051808303816000875af192505050801561108557506040513d601f19601f820116820180604052508101906110829190612418565b60015b61112a57611091612452565b806308c379a0036110ed57506110a5612474565b806110b057506110ef565b806040517f08c379a00000000000000000000000000000000000000000000000000000000081526004016110e4919061169f565b60405180910390fd5b505b6040517f08c379a000000000000000000000000000000000000000000000000000000000815260040161112190612576565b60405180910390fd5b63bc197c8160e01b7bffffffffffffffffffffffffffffffffffffffffffffffffffffffff1916817bffffffffffffffffffffffffffffffffffffffffffffffffffffffff1916146111b1576040517f08c379a00000000000000000000000000000000000000000000000000000000081526004016111a890612608565b60405180910390fd5b505b505050505050565b60606000600167ffffffffffffffff8111156111da576111d96116c6565b5b6040519080825280602002602001820160405280156112085781602001602082028036833780820191505090505b50905082816000815181106112205761121f611f01565b5b60200260200101818152505080915050919050565b6112548473ffffffffffffffffffffffffffffffffffffffff16610847565b15611404578373ffffffffffffffffffffffffffffffffffffffff1663f23a6e6187878686866040518663ffffffff1660e01b815260040161129a959493929190612628565b6020604051808303816000875af19250505080156112d657506040513d601f19601f820116820180604052508101906112d39190612418565b60015b61137b576112e2612452565b806308c379a00361133e57506112f6612474565b806113015750611340565b806040517f08c379a0000000000000000000000000000000000000000000000000000000008152600401611335919061169f565b60405180910390fd5b505b6040517f08c379a000000000000000000000000000000000000000000000000000000000815260040161137290612576565b60405180910390fd5b63f23a6e6160e01b7bffffffffffffffffffffffffffffffffffffffffffffffffffffffff1916817bffffffffffffffffffffffffffffffffffffffffffffffffffffffff191614611402576040517f08c379a00000000000000000000000000000000000000000000000000000000081526004016113f990612608565b60405180910390fd5b505b505050505050565b6000604051905090565b600080fd5b600080fd5b600073ffffffffffffffffffffffffffffffffffffffff82169050919050565b600061144b82611420565b9050919050565b61145b81611440565b811461146657600080fd5b50565b60008135905061147881611452565b92915050565b6000819050919050565b6114918161147e565b811461149c57600080fd5b50565b6000813590506114ae81611488565b92915050565b600080604083850312156114cb576114ca611416565b5b60006114d985828601611469565b92505060206114ea8582860161149f565b9150509250929050565b6114fd8161147e565b82525050565b600060208201905061151860008301846114f4565b92915050565b60007fffffffff0000000000000000000000000000000000000000000000000000000082169050919050565b6115538161151e565b811461155e57600080fd5b50565b6000813590506115708161154a565b92915050565b60006020828403121561158c5761158b611416565b5b600061159a84828501611561565b91505092915050565b60008115159050919050565b6115b8816115a3565b82525050565b60006020820190506115d360008301846115af565b92915050565b6000602082840312156115ef576115ee611416565b5b60006115fd8482850161149f565b91505092915050565b600081519050919050565b600082825260208201905092915050565b60005b83811015611640578082015181840152602081019050611625565b8381111561164f576000848401525b50505050565b6000601f19601f8301169050919050565b600061167182611606565b61167b8185611611565b935061168b818560208601611622565b61169481611655565b840191505092915050565b600060208201905081810360008301526116b98184611666565b905092915050565b600080fd5b7f4e487b7100000000000000000000000000000000000000000000000000000000600052604160045260246000fd5b6116fe82611655565b810181811067ffffffffffffffff8211171561171d5761171c6116c6565b5b80604052505050565b600061173061140c565b905061173c82826116f5565b919050565b600067ffffffffffffffff82111561175c5761175b6116c6565b5b602082029050602081019050919050565b600080fd5b600061178561178084611741565b611726565b905080838252602082019050602084028301858111156117a8576117a761176d565b5b835b818110156117d157806117bd888261149f565b8452602084019350506020810190506117aa565b5050509392505050565b600082601f8301126117f0576117ef6116c1565b5b8135611800848260208601611772565b91505092915050565b600080fd5b600067ffffffffffffffff821115611829576118286116c6565b5b61183282611655565b9050602081019050919050565b82818337600083830152505050565b600061186161185c8461180e565b611726565b90508281526020810184848401111561187d5761187c611809565b5b61188884828561183f565b509392505050565b600082601f8301126118a5576118a46116c1565b5b81356118b584826020860161184e565b91505092915050565b600080600080600060a086880312156118da576118d9611416565b5b60006118e888828901611469565b95505060206118f988828901611469565b945050604086013567ffffffffffffffff81111561191a5761191961141b565b5b611926888289016117db565b935050606086013567ffffffffffffffff8111156119475761194661141b565b5b611953888289016117db565b925050608086013567ffffffffffffffff8111156119745761197361141b565b5b61198088828901611890565b9150509295509295909350565b600067ffffffffffffffff8211156119a8576119a76116c6565b5b602082029050602081019050919050565b60006119cc6119c78461198d565b611726565b905080838252602082019050602084028301858111156119ef576119ee61176d565b5b835b81811015611a185780611a048882611469565b8452602084019350506020810190506119f1565b5050509392505050565b600082601f830112611a3757611a366116c1565b5b8135611a478482602086016119b9565b91505092915050565b60008060408385031215611a6757611a66611416565b5b600083013567ffffffffffffffff811115611a8557611a8461141b565b5b611a9185828601611a22565b925050602083013567ffffffffffffffff811115611ab257611ab161141b565b5b611abe858286016117db565b9150509250929050565b600081519050919050565b600082825260208201905092915050565b6000819050602082019050919050565b611afd8161147e565b82525050565b6000611b0f8383611af4565b60208301905092915050565b6000602082019050919050565b6000611b3382611ac8565b611b3d8185611ad3565b9350611b4883611ae4565b8060005b83811015611b79578151611b608882611b03565b9750611b6b83611b1b565b925050600181019050611b4c565b5085935050505092915050565b60006020820190508181036000830152611ba08184611b28565b905092915050565b611bb1816115a3565b8114611bbc57600080fd5b50565b600081359050611bce81611ba8565b92915050565b60008060408385031215611beb57611bea611416565b5b6000611bf985828601611469565b9250506020611c0a85828601611bbf565b9150509250929050565b60008060408385031215611c2b57611c2a611416565b5b6000611c3985828601611469565b9250506020611c4a85828601611469565b9150509250929050565b600080600080600060a08688031215611c7057611c6f611416565b5b6000611c7e88828901611469565b9550506020611c8f88828901611469565b9450506040611ca08882890161149f565b9350506060611cb18882890161149f565b925050608086013567ffffffffffffffff811115611cd257611cd161141b565b5b611cde88828901611890565b9150509295509295909350565b7f455243313135353a2062616c616e636520717565727920666f7220746865207a60008201527f65726f2061646472657373000000000000000000000000000000000000000000602082015250565b6000611d47602b83611611565b9150611d5282611ceb565b604082019050919050565b60006020820190508181036000830152611d7681611d3a565b9050919050565b7f4e487b7100000000000000000000000000000000000000000000000000000000600052602260045260246000fd5b60006002820490506001821680611dc457607f821691505b602082108103611dd757611dd6611d7d565b5b50919050565b7f455243313135353a207472616e736665722063616c6c6572206973206e6f742060008201527f6f776e6572206e6f7220617070726f7665640000000000000000000000000000602082015250565b6000611e39603283611611565b9150611e4482611ddd565b604082019050919050565b60006020820190508181036000830152611e6881611e2c565b9050919050565b7f455243313135353a206163636f756e747320616e6420696473206c656e67746860008201527f206d69736d617463680000000000000000000000000000000000000000000000602082015250565b6000611ecb602983611611565b9150611ed682611e6f565b604082019050919050565b60006020820190508181036000830152611efa81611ebe565b9050919050565b7f4e487b7100000000000000000000000000000000000000000000000000000000600052603260045260246000fd5b7f4e487b7100000000000000000000000000000000000000000000000000000000600052601160045260246000fd5b6000611f6a8261147e565b91507fffffffffffffffffffffffffffffffffffffffffffffffffffffffffffffffff8203611f9c57611f9b611f30565b5b600182019050919050565b7f455243313135353a2063616c6c6572206973206e6f74206f776e6572206e6f7260008201527f20617070726f7665640000000000000000000000000000000000000000000000602082015250565b6000612003602983611611565b915061200e82611fa7565b604082019050919050565b6000602082019050818103600083015261203281611ff6565b9050919050565b7f455243313135353a2069647320616e6420616d6f756e7473206c656e6774682060008201527f6d69736d61746368000000000000000000000000000000000000000000000000602082015250565b6000612095602883611611565b91506120a082612039565b604082019050919050565b600060208201905081810360008301526120c481612088565b9050919050565b7f455243313135353a207472616e7366657220746f20746865207a65726f20616460008201527f6472657373000000000000000000000000000000000000000000000000000000602082015250565b6000612127602583611611565b9150612132826120cb565b604082019050919050565b600060208201905081810360008301526121568161211a565b9050919050565b7f455243313135353a20696e73756666696369656e742062616c616e636520666f60008201527f72207472616e7366657200000000000000000000000000000000000000000000602082015250565b60006121b9602a83611611565b91506121c48261215d565b604082019050919050565b600060208201905081810360008301526121e8816121ac565b9050919050565b60006121fa8261147e565b91506122058361147e565b9250827fffffffffffffffffffffffffffffffffffffffffffffffffffffffffffffffff0382111561223a57612239611f30565b5b828201905092915050565b6000604082019050818103600083015261225f8185611b28565b905081810360208301526122738184611b28565b90509392505050565b7f455243313135353a2073657474696e6720617070726f76616c2073746174757360008201527f20666f722073656c660000000000000000000000000000000000000000000000602082015250565b60006122d8602983611611565b91506122e38261227c565b604082019050919050565b60006020820190508181036000830152612307816122cb565b9050919050565b600060408201905061232360008301856114f4565b61233060208301846114f4565b9392505050565b61234081611440565b82525050565b600081519050919050565b600082825260208201905092915050565b600061236d82612346565b6123778185612351565b9350612387818560208601611622565b61239081611655565b840191505092915050565b600060a0820190506123b06000830188612337565b6123bd6020830187612337565b81810360408301526123cf8186611b28565b905081810360608301526123e38185611b28565b905081810360808301526123f78184612362565b90509695505050505050565b6000815190506124128161154a565b92915050565b60006020828403121561242e5761242d611416565b5b600061243c84828501612403565b91505092915050565b60008160e01c9050919050565b600060033d11156124715760046000803e61246e600051612445565b90505b90565b600060443d106125015761248661140c565b60043d036004823e80513d602482011167ffffffffffffffff821117156124ae575050612501565b808201805167ffffffffffffffff8111156124cc5750505050612501565b80602083010160043d0385018111156124e9575050505050612501565b6124f8826020018501866116f5565b82955050505050505b90565b7f455243313135353a207472616e7366657220746f206e6f6e204552433131353560008201527f526563656976657220696d706c656d656e746572000000000000000000000000602082015250565b6000612560603483611611565b915061256b82612504565b604082019050919050565b6000602082019050818103600083015261258f81612553565b9050919050565b7f455243313135353a204552433131353552656365697665722072656a6563746560008201527f6420746f6b656e73000000000000000000000000000000000000000000000000602082015250565b60006125f2602883611611565b91506125fd82612596565b604082019050919050565b60006020820190508181036000830152612621816125e5565b9050919050565b600060a08201905061263d6000830188612337565b61264a6020830187612337565b61265760408301866114f4565b61266460608301856114f4565b81810360808301526126768184612362565b9050969550505050505056fea2646970667358221220ddba2206afaa7dacc948a735ccbf8573a50507f33f378a0ac9a64b4f50aaa93264736f6c634300080d003368747470733a2f2f697066732e696f2f697066732f626166796265696376666576746d356869333367756879706b6677346776327570616268736c746366797376796462736263676d72756a32773571",
  "immutableReferences": {},
  "source": "// SPDX-License-Identifier: MIT\npragma solidity ^0.8.10;\n\nimport \"@openzeppelin/contracts/token/ERC1155/ERC1155.sol\";\ncontract Crops is ERC1155(\"https://ipfs.io/ipfs/bafybeicvfevtm5hi33guhypkfw4gv2upabhsltcfysvydbsbcgmruj2w5q\") {\n    uint256 public constant CARROT = 0;\n    uint256 public constant POTATO = 1;\n    uint256 public constant CORN = 2;\n    uint256 public constant GOLDEN_CARROT = 3;\n    uint256 public constant SPROUTING_POTATO = 4;\n    uint256 public constant RAINBOW_CORN = 5;\n    constructor() {\n        _mint(msg.sender, CARROT, 1000, \"\");\n        _mint(msg.sender, POTATO, 2000, \"\");\n        _mint(msg.sender, CORN, 3000, \"\");\n        _mint(msg.sender, GOLDEN_CARROT, 1, \"\");\n        _mint(msg.sender, SPROUTING_POTATO, 2, \"\");\n        _mint(msg.sender, RAINBOW_CORN, 3, \"\");\n    }\n}",
  "sourcePath": "/Users/danielbrown/Desktop/dappuniversity/nft_farm-main/src/contracts/Crops.sol",
  "compiler": {
    "name": "solc",
    "version": "0.8.13+commit.abaa5c0e.Emscripten.clang"
  },
  "schemaVersion": "3.4.3",
  "updatedAt": "2022-05-14T19:22:12.655Z",
  "networkType": "ethereum",
  "devdoc": {
    "kind": "dev",
    "methods": {
      "balanceOf(address,uint256)": {
        "details": "See {IERC1155-balanceOf}. Requirements: - `account` cannot be the zero address."
      },
      "balanceOfBatch(address[],uint256[])": {
        "details": "See {IERC1155-balanceOfBatch}. Requirements: - `accounts` and `ids` must have the same length."
      },
      "isApprovedForAll(address,address)": {
        "details": "See {IERC1155-isApprovedForAll}."
      },
      "safeBatchTransferFrom(address,address,uint256[],uint256[],bytes)": {
        "details": "See {IERC1155-safeBatchTransferFrom}."
      },
      "safeTransferFrom(address,address,uint256,uint256,bytes)": {
        "details": "See {IERC1155-safeTransferFrom}."
      },
      "setApprovalForAll(address,bool)": {
        "details": "See {IERC1155-setApprovalForAll}."
      },
      "supportsInterface(bytes4)": {
        "details": "See {IERC165-supportsInterface}."
      },
      "uri(uint256)": {
        "details": "See {IERC1155MetadataURI-uri}. This implementation returns the same URI for *all* token types. It relies on the token type ID substitution mechanism https://eips.ethereum.org/EIPS/eip-1155#metadata[defined in the EIP]. Clients calling this function must replace the `\\{id\\}` substring with the actual token type ID."
      }
    },
    "version": 1
  },
  "userdoc": {
    "kind": "user",
    "methods": {},
    "version": 1
  }
}